:02000000842951
:1000060083123608033C031D0A283508FF3C0318F3
:100016001028FF30B5000330B600D501D601FF30F9
:10002600D7000130D800D901DA0136085602031D7F
:100036001E283508550203184128D50A0319D60A81
:10004600F4305707D10058080318013E013ED2008C
:100056005108D7005208D80003305202031D352834
:10006600FF305102031C4028FF30D702031CD8037F
:100076000330D802D90A0319DA0A18285A08013CAB
:10008600031D47285908F43C03184D28F430D900BD
:100096000130DA005908D3005A08D4005308D000BA
:0600A6005408D10008001F
:1000AC00831285128A30DD00DD0B5A280000000017
:1000BC00D20101303505D1005108013A031D6828E1
:1000CC00851669288512B50CB5138A30DD00DD0B59
:1000DC006D28000000005208073A03197728D20A4D
:1000EC005F2885168A30DD00DD0B7A2800000000C1
:0A00FC002130DD00DD0B8028080034
:1001060083122E08B5002F08B60003205008B3004E
:100116005108B40030088400800100303402031D09
:10012600962864303302031CA5286430B302031CEE
:10013600B40330088400000AD00030088400500858
:100146008000902831088400800100303402031DAD
:10015600AE280A303302031CBD280A30B302031C42
:10016600B40331088400000AD00031088400500826
:0E0176008000A82832088400330880000800AA
:10018400303083122E07D0005008B50056200800E6
:1001940020308312B50056202030B5005620203080
:1001A400B50056202D30B50056202030B50056201D
:0801B4002030B50056200800C0
:1001BC0083122908AE002A08AF002B30B0002C3077
:1001CC00B1002D30B20083204330B50056204830AA
:1001DC00B50056204E30B50056202030B5005620C4
:1001EC002808AE00C2203A30B50056202030B500A9
:1001FC0056202B08AE00C2202E30B50056202C08FD
:10020C00AE00C2202D08AE00C2202030B500562012
:10021C005630B50056204F30B50056204C30B50046
:10022C0056205430B50056205330B50056200800E7
:10023C0001308312A30023082202031C2E29203034
:10024C00B50056202308220603192E29A30A2129BA
:02025C00080098
:10025E0083122408A8002208A9002308AA00DE2081
:10026E00CA202708A8002508A9002608AA00DE2013
:02027E00080076
:1002800083122208033C03184629A201F3309F057C
:100290002208D000D00D5010D00D501050089F04EF
:1002A0000630DD00DD0B522900009F149F1C5A29E7
:1002B000000056291E08D300D4015308D100D001F4
:1002C00083161E085004D5005108D6000030D6040D
:0A02D0005508D0005608D1000800C0
:1002DA000730831299008316851283128516080047
:1002EA000730831299001F3083169F0083128516E8
:0E02FA001F3083168500813083129F0008009C
:1003080075216D211030DB003930DC000D30DD0047
:10031800DD0B8C29DC0B8C29DB0B8C290000000001
:100328000130A20040215008A0005108A100A201FC
:1003380040215008A2005108A300A4010130A700E1
:100348002008A5002108A6002F211830A2001E2190
:100358000330A20040215008A0005108A10002303B
:10036800A20040215008A2005108A3000230A400B6
:100378000330A7002008A5002108A6002F21183067
:10038800A2001E210630DB001330DC00AD30DD009A
:10039800DD0BCC29DC0BCC29DB0BCC2900000000C1
:0403A8009429D52996
:02400E00D431AB
:00000001FF
