:02000000702965
:10000600831285128A30DD00DD0B07280000000010
:10001600D20101303505D1005108013A031D1528DA
:10002600851616288512B50CB5138A30DD00DD0B52
:100036001A28000000005208073A03192428D20A99
:100046000C2885168A30DD00DD0B2728000000000D
:0A0056002130DD00DD0B2D2808002D
:1000600083123608033C031D37283508FF3C03186C
:100070003D28FF30B5000330B600D501D601FF3072
:10008000D7000130D800D901DA0136085602031D25
:100090004B283508550203186E28D50A0319D60ACD
:1000A000F4305707D10058080318013E013ED20032
:1000B0005108D7005208D80003305202031D6228AD
:1000C000FF305102031C6D28FF30D702031CD803F8
:1000D0000330D802D90A0319DA0A45285A08013C24
:1000E000031D74285908F43C03187A28F430D90009
:1000F0000130DA005908D3005A08D4005308D00060
:060100005408D1000800C4
:10010600303083122E07D0005008B50003200800B7
:1001160083122E08B5002F08B60030205008B30011
:100126005108B40030088400800100303402031DF9
:100136009E2864303302031CAD286430B302031CCE
:10014600B40330088400000AD00030088400500848
:100156008000982831088400800100303402031D95
:10016600B6280A303302031CC5280A30B302031C22
:10017600B40331088400000AD00031088400500816
:0E0186008000B0283208840033088000080092
:1001940083122908AE002A08AF002B30B0002C309F
:1001A400B1002D30B2008B204330B500032048301D
:1001B400B50003204E30B50003202030B5000320E5
:1001C4002808AE0083203A30B50003202030B50063
:1001D40003202B08AE0083202E30B50003202C080A
:1001E400AE0083202D08AE0083202030B50003200C
:1001F4005630B50003204F30B50003204C30B50015
:1002040003205430B50003205330B5000320080008
:1002140020308312B50003202030B50003202030A5
:10022400B50003202D30B50003202030B500032095
:080234002030B5000320080092
:10023C0083122408A8002208A9002308AA00CA20B7
:10024C000A212708A8002508A9002608AA00CA2008
:02025C00080098
:10025E0083122208033C03183529A201F3309F05AF
:10026E002208D000D00D5010D00D501050089F0411
:10027E000630DD00DD0B412900009F149F1C49292B
:10028E00000045291E08D300D4015308D100D00127
:10029E0083161E085004D5005108D6000030D6042F
:0A02AE005508D0005608D1000800E2
:1002B8000730831299008316851283128516080069
:1002C8000730831299001F3083169F001F30850066
:0802D800813083129F00080031
:1002E00064215C210130A2002F215008A000510898
:1002F000A100A2012F215008A2005108A300A401CF
:100300000130A7002008A5002108A6001E21033007
:10031000A2002F215008A0005108A1000230A20025
:100320002F215008A2005108A3000230A40003307E
:10033000A7002008A5002108A6001E210630DB002A
:100340001330DC00AD30DD00DD0BA429DC0BA4296B
:0C035000DB0BA429000000007229AD297D
:02400E00F2318D
:00000001FF
